:100000000C942E000C944B000C944B000C944B0061
:100010000C944B000C944B000C944B000C94C704B4
:100020000C944B000C944B000C944B000C944B0024
:100030000C944B000C944B000C944B000C944B0014
:100040000C944B000C944B000C944B000C944B0004
:100050000C944B000C944B000C944B0011241FBECD
:10006000CFEFD0E1DEBFCDBF11E0A0E0B1E0E6E22E
:10007000FFE002C005900D92AE31B107D9F721E043
:10008000AEE1B1E001C01D92AF32B207E1F70E94CC
:10009000D6060C9467070C940000EAE7F0E0808134
:1000A00087688083ECE7F0E0808180668083089534
:1000B00020917C00287F20937C0090917C00982BDD
:1000C00090937C0080917A00806480937A00809184
:1000D0007A0086FDFCCF8091790008958DB18F7CE8
:1000E0008DB985E08A95F1F700006D9A759885E0E5
:1000F0008A95F1F700006C9A749885E08A95F1F77B
:10010000000008956C9885E08A95F1F700006D98DD
:1001100085E08A95F1F7000008956D9885E08A954D
:10012000F1F7000065990DC06C9885E08A95F1F7AC
:1001300000006C9A749885E08A95F1F70000659B41
:10014000F3CF6C9808956C9885E08A95F1F70000DC
:100150006C9A749885E08A95F1F7000008951F93D2
:10016000CF93DF93C82FD62F142F0E948D000E94AB
:100170006E0087E013C06D9895E09A95F1F7000046
:100180006C9895E09A95F1F700006C9A749895E058
:100190009A95F1F70000CC0F815029F0C6FDEBCF06
:1001A0006D9A7598E9CF6D9A759885E08A95F1F703
:1001B00000006C9895E09A95F1F700006C9A74989D
:1001C00085E08A95F1F700006D9895E09A95F1F732
:1001D00000006C98659941C085E08A95F1F70000B0
:1001E0006C9A749895E09A95F1F7000088E014C035
:1001F0006D9A759895E09A95F1F700006C9895E0E6
:100200009A95F1F700006C9A749895E09A95F1F739
:100210000000DD0F815021F0D7FFEACF6D98EACFC3
:100220006D9885E08A95F1F700006C98659910C08B
:1002300095E09A95F1F700006C9A749885E08A959C
:10024000F1F7000011110EC0DF91CF911F910895B9
:1002500080E191E00E94C403FFCF84E091E00E941E
:10026000C403FFCF6C9895E09A95F1F700006D9864
:1002700085E08A95F1F70000DF91CF911F910895F5
:100280006623C1F1DC019C01260F311D8D9198E0A0
:10029000FD01319716C06D9A759885E08A95F1F742
:1002A00000006C9885E08A95F1F700006C9A7498CC
:1002B00085E08A95F1F700008081880F8083915056
:1002C00021F087FFE8CF6D98E8CF6D9885E08A959B
:1002D000F1F700006C98659918C085E08A95F1F7F0
:1002E00000006C9A749885E08A95F1F70000A217D7
:1002F000B30761F66C9885E08A95F1F700006D9878
:1003000085E08A95F1F7000008958DE091E00E9464
:10031000C403FFCF0F931F93CF93DF93182FEB01ED
:10032000042F0E946E0087E013C06D9895E09A95A7
:10033000F1F700006C9895E09A95F1F700006C9A3F
:10034000749895E09A95F1F70000110F815029F00B
:1003500016FDEBCF6D9A7598E9CF6D9885E08A957B
:10036000F1F700006C9895E09A95F1F700006C9A0F
:10037000749885E08A95F1F700006D9895E09A955C
:10038000F1F700006C98659956C085E08A95F1F701
:1003900000006C9A749895E09A95F1F700006D98BA
:1003A00085E08A95F1F70000002391F19E01200F6E
:1003B000311D98E08881880F88836C9885E08A9544
:1003C000F1F70000659B03C088818160888385E028
:1003D0008A95F1F700006C9A749885E08A95F1F798
:1003E0000000915039F76D9A759895E09A95F1F75C
:1003F00000006C9885E08A95F1F700006C9A74987B
:1004000095E09A95F1F700002196C217D30789F677
:1004100085E08A95F1F700006C9895E09A95F1F7E0
:1004200000006D9885E08A95F1F70000DF91CF918B
:100430001F910F91089585E191E00E94C403FFCFC1
:10044000CF93DF930F92CDB7DEB7498340E00E9490
:10045000AF0061E0CE0101960E9440010F90DF9154
:10046000CF9108951F93CF93DF930F92CDB7DEB74F
:10047000182F41E00E94AF0041E0BE016F5F7F4F47
:10048000812F0E948A0189810F90DF91CF911F9166
:100490000895CF93DF930F92CDB7DEB741E061E0CF
:1004A0008CE10E94AF0041E0BE016F5F7F4F8CE1A5
:1004B0000E948A0189810F90DF91CF910895CF9397
:1004C000DF930F92CDB7DEB741E063E08CE10E948D
:1004D000AF0041E0BE016F5F7F4F8CE10E948A0157
:1004E00089810F90DF91CF910895CF93DF930F9281
:1004F000CDB7DEB741E065E08CE10E94AF0041E09E
:10050000BE016F5F7F4F8CE10E948A0189810F904D
:10051000DF91CF9108958AE08A95F1F700C0449A5F
:100520008AE08A95F1F700C044988AE08A95F1F74D
:1005300000C00895F89482B98AE08A95F1F700C066
:10054000449A8AE08A95F1F700C044988AE08A9537
:10055000F1F700C0789408958F98F89482B98AE0F2
:100560008A95F1F700C0449A8AE08A95F1F700C0B5
:1005700044988AE08A95F1F700C0789408958F9A9C
:10058000F89482B98AE08A95F1F700C0449A8AE02B
:100590008A95F1F700C044988AE08A95F1F700C087
:1005A00078940895803110F4623008F008956E5FF9
:1005B0006295660F660F607C680F8F98F89462B939
:1005C0008AE08A95F1F700C0449A8AE08A95F1F7AB
:1005D00000C044988AE08A95F1F700C0789485ECD1
:1005E0008A95F1F7000008953C9A879A8FEF81B9B8
:1005F0008FE19EE40197F1F700C000008F98F89416
:1006000088E382B99AE09A95F1F700C0449AEAE04B
:10061000EA95F1F700C04498FAE0FA95F1F700C0C6
:100620007894EFE7F2E03197F1F700C000008F987F
:10063000F89482B9FAE0FA95F1F700C0449A9AE08A
:100640009A95F1F700C04498EAE0EA95F1F700C006
:100650007894EFE7F2E03197F1F700C000008F984F
:10066000F89482B9FAE0FA95F1F700C0449A9AE05A
:100670009A95F1F700C04498EAE0EA95F1F700C0D6
:100680007894EFE7F2E03197F1F700C000008F981F
:10069000F89498E092B9FAE0FA95F1F700C0449A1C
:1006A0009AE09A95F1F700C04498EAE0EA95F1F7EC
:1006B00000C07894EFE7F2E03197F1F700C0000056
:1006C0008F98F89491E092B9FAE0FA95F1F700C0AA
:1006D000449A9AE09A95F1F700C04498EAE0EA95C6
:1006E000F1F700C07894EFE7FEE33197F1F700C02F
:1006F00000008F98F89496E092B9FAE0FA95F1F735
:1007000000C0449A9AE09A95F1F700C04498EAE054
:10071000EA95F1F700C07894EFE7F2E03197F1F74E
:1007200000C000008F98F89482B9FAE0FA95F1F7CA
:1007300000C0449A8AE08A95F1F700C044989AE094
:100740009A95F1F700C07894EFE8F1E03197F1F76E
:1007500000C000008F98F8948CE082B9FAE0FA9516
:10076000F1F700C0449A8AE08A95F1F700C04498F6
:100770009AE09A95F1F700C07894EFE8F1E03197AC
:10078000F1F700C000000895DC018C91882301F18D
:1007900090E08F9AF89482B98AE08A95F1F700C0C8
:1007A000449AEAE0EA95F1F700C04498FAE0FA9535
:1007B000F1F700C07894EFE7F2E03197F1F700C06D
:1007C00000009F5FFD01E90FF11D80818111E1CFE4
:1007D00008951F93CF93DF939C01892B09F45AC08E
:1007E00045E011E0EFE0F7E2CAE0D0E0C901BF0167
:1007F0006F5F7F4F0E943907662349F1E217F307C5
:1008000070F5605D8F9AF89462B9BAE0BA95F1F725
:1008100000C0449A2AE02A95F1F700C04498AAE063
:10082000AA95F1F700C07894AFE7B2E01197F1F71D
:1008300000C0000010E09C01CF01BE010E944D07E6
:10084000FB01415099F6DF91CF911F910895E21776
:10085000F30718F41111EFCFD4CF1111EDCF605D74
:100860008F9AF89462B9BAE0BA95F1F700C0449A49
:100870008AE08A95F1F700C044989AE09A95F1F7DA
:1008800000C07894AFE7B2E01197F1F700C0000024
:1008900010E0D2CF8F9AF89480E382B92AE02A95AB
:1008A000F1F700C0449A8AE08A95F1F700C04498B5
:1008B0009AE09A95F1F700C07894AFE7B2E011970B
:1008C000F1F700C00000DF91CF911F9108958F983C
:1008D000F89481E082B98AE08A95F1F700C0449AE1
:1008E0009AE09A95F1F700C044988AE08A95F1F76A
:1008F00000C078948FE79EE30197F1F700C00000F5
:100900000895382F262F4FEF6403C001112464E6A9
:1009100070E00E944D07311107C06093B3001216BA
:100920004CF45C9A5D98089567BD121634F45E9A93
:100930005F9808955D9A5C9808955F9A5E9808950F
:10094000A3EBB0E01C925D9A5C9817BC5F9A5E982E
:1009500084B1806984B98AB1806F8AB9E0EBF0E034
:1009600080818866808380818260808384B5886688
:1009700084BD84B5826084BD8AE087BD8C93089570
:100980005C9A5D982C9A5F9A5E982F9A08950F92C0
:100990000FB60F922F933F938F939F93EF93FF93F5
:1009A00020912E01822F869590E020FF2FC020916C
:1009B000880030918900880F991FFC01E25EFE4F8C
:1009C00080819181820F931F90938900809388008A
:1009D00038B120912E01269581E090E0022E01C0D1
:1009E000880F0A94EAF78095832388B980912E01B5
:1009F0008F5F877080932E01FF91EF919F918F9170
:100A00003F912F910F900FBE0F9018952091880065
:100A100030918900880F991FFC01EA5DFE4F8081AB
:100A20009181820F931F909389008093880088B1F1
:100A300090912E01969521E030E001C0220F9A9509
:100A4000EAF7822B88B9D2CF90E02AE0629FB0010A
:100A500011246C53764F880F991FFC01EA5DFE4FFD
:100A600071836083825E9E4F24ED30E3261B370B3B
:100A7000FC01318320830895A6E2B1E024EC39E043
:100A800011963C932E93EEE1F1E080E197E29183A1
:100A9000808313963C932E931297938382831596AB
:100AA0003C932E9314979583848317963C932E93AF
:100AB00016979783868387B18F6087B9E1E8F0E066
:100AC0001082808182608083EFE6F0E08081826026
:100AD0008083789408958CB18095881F8827881F1B
:100AE0000895282F30E08E3010F080E00895F9014D
:100AF000E759F84F0C94610786B190E02250310914
:100B000002C0959587952A95E2F78170089583B183
:100B100090E02950310902C0959587952A95E2F712
:100B2000817008959CB1292F30E0A90102C055952C
:100B300047958A95E2F7CA018170089582B390E0E3
:100B40002F5F3F4F02C0959587952A95E2F78170F8
:100B5000089523B1E9CF83B18695817008958CB152
:100B600086FB882780F9089583B181700895282F26
:100B700030E08E3030F4F901E958F84F0C946107F9
:100B8000219808952250310981E090E001C0880F3A
:100B90002A95EAF797B1662309F44DC0892B87B9E6
:100BA00008952950310981E090E001C0880F2A950D
:100BB000EAF794B1662309F446C0892B84B90895F5
:100BC0002F5F3F4F81E090E001C0880F2A95EAF740
:100BD00093B36623A1F1892B83BB089521E030E014
:100BE00001C0220F8A95EAF78DB1662381F1282B87
:100BF0002DB9089521E030E001C0220F8A95EAF76F
:100C000084B1662381F0282B24B90895662309F462
:100C1000B7CF219A0895662361F06E9A08956623EE
:100C200031F0209A08952095282324B9089520981A
:100C300008956E9808958095892387B908958095C1
:100C4000892383BB08958095892384B908952095CD
:100C500028232DB90895282F30E08E3030F4F90183
:100C6000EB57F84F0C9461072998089522503109E9
:100C700081E090E001C0880F2A95EAF798B16623D9
:100C800009F44DC0892B88B908952950310981E0B4
:100C900090E001C0880F2A95EAF795B1662309F420
:100CA00046C0892B85B908952F5F3F4F81E090E0C2
:100CB00001C0880F2A95EAF794B36623A1F1892B26
:100CC00084BB089521E030E001C0220F8A95EAF745
:100CD0008EB1662381F1282B2EB9089521E030E0F2
:100CE00001C0220F8A95EAF785B1662381F0282B8F
:100CF00025B90895662309F4B7CF299A0895662384
:100D000061F0769A0895662331F0289A0895209527
:100D1000282325B9089528980895769808958095F0
:100D2000892388B908958095892384BB0895809587
:100D3000892385B90895209528232EB90895811116
:100D400004C0613041F0A0980895613011F0A1987D
:100D50000895A19A0895A09A0895811102C0A09AB9
:100D60000895A19A0895811102C0A0980895A198AC
:100D70000895529A83B3836083BB779A0E944D0093
:100D80000E94F4020E943C050E94A00441E06AE235
:100D90008CE10E9420022FEF81EE94E021508040F0
:100DA0009040E1F700C000000C948D000E94B9064D
:100DB00002E010E0D0E031C08F5B91096D2F8C977D
:100DC00010F461E0D1E08C2F90E09C0120513109BA
:100DD0002C32310588F5C801019601501109099797
:100DE000A8F182E0E82EF12C0EEF1FEF80E00E94C8
:100DF000D202C70180509F4F0E94C40361E080E08F
:100E00000E94D2022FEF85EA9EE021508040904060
:100E1000E1F700C000000E9467040E945F02C82F33
:100E20000E94490290E09C01205131092C32310589
:100E300018F660E0D0E0C7CF8F5B91098C9730F453
:100E4000C8010296099788F40F5F1F4F802F17FD86
:100E500007C00E94D20280E091E00E94C403CECF7E
:100E6000EE24FF24E01AF10AC1CF87E007E010E08A
:100E7000F0CFAA1BBB1B51E107C0AA1FBB1FA617BF
:100E8000B70710F0A61BB70B881F991F5A95A9F733
:100E900080959095BC01CD01089597FB072E16F41F
:100EA000009407D077FD09D00E94390707FC05D0D0
:100EB0003EF4909581959F4F0895709561957F4F71
:100EC0000895EE0FFF1F0590F491E02D0994F8941A
:100ED000FFCF920592059E059E05AF05A905A905C0
:100EE0007C057C057C05B40587058705AB05EE050B
:100EF000EE05E005E0050B06FA05FA05C205C20598
:100F0000C2050F06D105D105060662066206540623
:100F100054067F066E066E063606360636068306CD
:060F2000450645067A06B5
:100F260034313600616464724E41434B0077725F20
:0E0F36004E41434B00726561644E41434B00D7
:00000001FF
